{
  "contractName": "ArtCollectible",
  "abi": [
    {
      "inputs": [],
      "stateMutability": "nonpayable",
      "type": "constructor"
    },
    {
      "anonymous": false,
      "inputs": [
        {
          "indexed": true,
          "internalType": "address",
          "name": "owner",
          "type": "address"
        },
        {
          "indexed": true,
          "internalType": "address",
          "name": "approved",
          "type": "address"
        },
        {
          "indexed": true,
          "internalType": "uint256",
          "name": "tokenId",
          "type": "uint256"
        }
      ],
      "name": "Approval",
      "type": "event"
    },
    {
      "anonymous": false,
      "inputs": [
        {
          "indexed": true,
          "internalType": "address",
          "name": "owner",
          "type": "address"
        },
        {
          "indexed": true,
          "internalType": "address",
          "name": "operator",
          "type": "address"
        },
        {
          "indexed": false,
          "internalType": "bool",
          "name": "approved",
          "type": "bool"
        }
      ],
      "name": "ApprovalForAll",
      "type": "event"
    },
    {
      "anonymous": false,
      "inputs": [
        {
          "indexed": true,
          "internalType": "address",
          "name": "previousOwner",
          "type": "address"
        },
        {
          "indexed": true,
          "internalType": "address",
          "name": "newOwner",
          "type": "address"
        }
      ],
      "name": "OwnershipTransferred",
      "type": "event"
    },
    {
      "anonymous": false,
      "inputs": [
        {
          "indexed": true,
          "internalType": "address",
          "name": "from",
          "type": "address"
        },
        {
          "indexed": true,
          "internalType": "address",
          "name": "to",
          "type": "address"
        },
        {
          "indexed": true,
          "internalType": "uint256",
          "name": "tokenId",
          "type": "uint256"
        }
      ],
      "name": "Transfer",
      "type": "event"
    },
    {
      "inputs": [
        {
          "internalType": "address",
          "name": "to",
          "type": "address"
        },
        {
          "internalType": "uint256",
          "name": "tokenId",
          "type": "uint256"
        }
      ],
      "name": "approve",
      "outputs": [],
      "stateMutability": "nonpayable",
      "type": "function"
    },
    {
      "inputs": [
        {
          "internalType": "address",
          "name": "owner",
          "type": "address"
        }
      ],
      "name": "balanceOf",
      "outputs": [
        {
          "internalType": "uint256",
          "name": "",
          "type": "uint256"
        }
      ],
      "stateMutability": "view",
      "type": "function",
      "constant": true
    },
    {
      "inputs": [
        {
          "internalType": "uint256",
          "name": "tokenId",
          "type": "uint256"
        }
      ],
      "name": "getApproved",
      "outputs": [
        {
          "internalType": "address",
          "name": "",
          "type": "address"
        }
      ],
      "stateMutability": "view",
      "type": "function",
      "constant": true
    },
    {
      "inputs": [
        {
          "internalType": "address",
          "name": "owner",
          "type": "address"
        },
        {
          "internalType": "address",
          "name": "operator",
          "type": "address"
        }
      ],
      "name": "isApprovedForAll",
      "outputs": [
        {
          "internalType": "bool",
          "name": "",
          "type": "bool"
        }
      ],
      "stateMutability": "view",
      "type": "function",
      "constant": true
    },
    {
      "inputs": [],
      "name": "name",
      "outputs": [
        {
          "internalType": "string",
          "name": "",
          "type": "string"
        }
      ],
      "stateMutability": "view",
      "type": "function",
      "constant": true
    },
    {
      "inputs": [],
      "name": "owner",
      "outputs": [
        {
          "internalType": "address",
          "name": "",
          "type": "address"
        }
      ],
      "stateMutability": "view",
      "type": "function",
      "constant": true
    },
    {
      "inputs": [
        {
          "internalType": "uint256",
          "name": "tokenId",
          "type": "uint256"
        }
      ],
      "name": "ownerOf",
      "outputs": [
        {
          "internalType": "address",
          "name": "",
          "type": "address"
        }
      ],
      "stateMutability": "view",
      "type": "function",
      "constant": true
    },
    {
      "inputs": [],
      "name": "renounceOwnership",
      "outputs": [],
      "stateMutability": "nonpayable",
      "type": "function"
    },
    {
      "inputs": [
        {
          "internalType": "address",
          "name": "from",
          "type": "address"
        },
        {
          "internalType": "address",
          "name": "to",
          "type": "address"
        },
        {
          "internalType": "uint256",
          "name": "tokenId",
          "type": "uint256"
        }
      ],
      "name": "safeTransferFrom",
      "outputs": [],
      "stateMutability": "nonpayable",
      "type": "function"
    },
    {
      "inputs": [
        {
          "internalType": "address",
          "name": "from",
          "type": "address"
        },
        {
          "internalType": "address",
          "name": "to",
          "type": "address"
        },
        {
          "internalType": "uint256",
          "name": "tokenId",
          "type": "uint256"
        },
        {
          "internalType": "bytes",
          "name": "_data",
          "type": "bytes"
        }
      ],
      "name": "safeTransferFrom",
      "outputs": [],
      "stateMutability": "nonpayable",
      "type": "function"
    },
    {
      "inputs": [
        {
          "internalType": "address",
          "name": "operator",
          "type": "address"
        },
        {
          "internalType": "bool",
          "name": "approved",
          "type": "bool"
        }
      ],
      "name": "setApprovalForAll",
      "outputs": [],
      "stateMutability": "nonpayable",
      "type": "function"
    },
    {
      "inputs": [
        {
          "internalType": "bytes4",
          "name": "interfaceId",
          "type": "bytes4"
        }
      ],
      "name": "supportsInterface",
      "outputs": [
        {
          "internalType": "bool",
          "name": "",
          "type": "bool"
        }
      ],
      "stateMutability": "view",
      "type": "function",
      "constant": true
    },
    {
      "inputs": [],
      "name": "symbol",
      "outputs": [
        {
          "internalType": "string",
          "name": "",
          "type": "string"
        }
      ],
      "stateMutability": "view",
      "type": "function",
      "constant": true
    },
    {
      "inputs": [
        {
          "internalType": "address",
          "name": "from",
          "type": "address"
        },
        {
          "internalType": "address",
          "name": "to",
          "type": "address"
        },
        {
          "internalType": "uint256",
          "name": "tokenId",
          "type": "uint256"
        }
      ],
      "name": "transferFrom",
      "outputs": [],
      "stateMutability": "nonpayable",
      "type": "function"
    },
    {
      "inputs": [
        {
          "internalType": "address",
          "name": "newOwner",
          "type": "address"
        }
      ],
      "name": "transferOwnership",
      "outputs": [],
      "stateMutability": "nonpayable",
      "type": "function"
    },
    {
      "inputs": [
        {
          "internalType": "string",
          "name": "baseURI_",
          "type": "string"
        }
      ],
      "name": "setBaseURI",
      "outputs": [],
      "stateMutability": "nonpayable",
      "type": "function"
    },
    {
      "inputs": [
        {
          "internalType": "uint256",
          "name": "tokenId",
          "type": "uint256"
        }
      ],
      "name": "tokenURI",
      "outputs": [
        {
          "internalType": "string",
          "name": "",
          "type": "string"
        }
      ],
      "stateMutability": "view",
      "type": "function",
      "constant": true
    },
    {
      "inputs": [
        {
          "internalType": "string",
          "name": "_tokenURI",
          "type": "string"
        }
      ],
      "name": "claimItem",
      "outputs": [
        {
          "internalType": "uint256",
          "name": "",
          "type": "uint256"
        }
      ],
      "stateMutability": "nonpayable",
      "type": "function"
    },
    {
      "inputs": [],
      "name": "totalSupply",
      "outputs": [
        {
          "internalType": "uint256",
          "name": "",
          "type": "uint256"
        }
      ],
      "stateMutability": "view",
      "type": "function",
      "constant": true
    }
  ],
  "bytecode": "0x60806040523480156200001157600080fd5b506040518060400160405280600e81526020017f617274436f6c6c65637469626c650000000000000000000000000000000000008152506040518060400160405280600481526020017f41525443000000000000000000000000000000000000000000000000000000008152506200009e62000092620000d860201b60201c565b620000e060201b60201c565b8160019080519060200190620000b6929190620001a4565b508060029080519060200190620000cf929190620001a4565b505050620002b9565b600033905090565b60008060009054906101000a900473ffffffffffffffffffffffffffffffffffffffff169050816000806101000a81548173ffffffffffffffffffffffffffffffffffffffff021916908373ffffffffffffffffffffffffffffffffffffffff1602179055508173ffffffffffffffffffffffffffffffffffffffff168173ffffffffffffffffffffffffffffffffffffffff167f8be0079c531659141344cd1fd0a4f28419497f9722a3daafe3b4186f6b6457e060405160405180910390a35050565b828054620001b29062000283565b90600052602060002090601f016020900481019282620001d6576000855562000222565b82601f10620001f157805160ff191683800117855562000222565b8280016001018555821562000222579182015b828111156200022157825182559160200191906001019062000204565b5b50905062000231919062000235565b5090565b5b808211156200025057600081600090555060010162000236565b5090565b7f4e487b7100000000000000000000000000000000000000000000000000000000600052602260045260246000fd5b600060028204905060018216806200029c57607f821691505b60208210811415620002b357620002b262000254565b5b50919050565b61305180620002c96000396000f3fe608060405234801561001057600080fd5b50600436106101215760003560e01c806370a08231116100ad578063a850e8bd11610071578063a850e8bd146102f4578063b88d4fde14610324578063c87b56dd14610340578063e985e9c514610370578063f2fde38b146103a057610121565b806370a0823114610262578063715018a6146102925780638da5cb5b1461029c57806395d89b41146102ba578063a22cb465146102d857610121565b806318160ddd116100f457806318160ddd146101c057806323b872dd146101de57806342842e0e146101fa57806355f804b3146102165780636352211e1461023257610121565b806301ffc9a71461012657806306fdde0314610156578063081812fc14610174578063095ea7b3146101a4575b600080fd5b610140600480360381019061013b9190611d5a565b6103bc565b60405161014d9190611da2565b60405180910390f35b61015e61049e565b60405161016b9190611e56565b60405180910390f35b61018e60048036038101906101899190611eae565b610530565b60405161019b9190611f1c565b60405180910390f35b6101be60048036038101906101b99190611f63565b6105b5565b005b6101c86106cd565b6040516101d59190611fb2565b60405180910390f35b6101f860048036038101906101f39190611fcd565b6106de565b005b610214600480360381019061020f9190611fcd565b61073e565b005b610230600480360381019061022b9190612155565b61075e565b005b61024c60048036038101906102479190611eae565b6107f4565b6040516102599190611f1c565b60405180910390f35b61027c6004803603810190610277919061219e565b6108a6565b6040516102899190611fb2565b60405180910390f35b61029a61095e565b005b6102a46109e6565b6040516102b19190611f1c565b60405180910390f35b6102c2610a0f565b6040516102cf9190611e56565b60405180910390f35b6102f260048036038101906102ed91906121f7565b610aa1565b005b61030e60048036038101906103099190612155565b610ab7565b60405161031b9190611fb2565b60405180910390f35b61033e600480360381019061033991906122d8565b610aee565b005b61035a60048036038101906103559190611eae565b610b50565b6040516103679190611e56565b60405180910390f35b61038a6004803603810190610385919061235b565b610cc3565b6040516103979190611da2565b60405180910390f35b6103ba60048036038101906103b5919061219e565b610d57565b005b60007f80ac58cd000000000000000000000000000000000000000000000000000000007bffffffffffffffffffffffffffffffffffffffffffffffffffffffff1916827bffffffffffffffffffffffffffffffffffffffffffffffffffffffff1916148061048757507f5b5e139f000000000000000000000000000000000000000000000000000000007bffffffffffffffffffffffffffffffffffffffffffffffffffffffff1916827bffffffffffffffffffffffffffffffffffffffffffffffffffffffff1916145b80610497575061049682610e4f565b5b9050919050565b6060600180546104ad906123ca565b80601f01602080910402602001604051908101604052809291908181526020018280546104d9906123ca565b80156105265780601f106104fb57610100808354040283529160200191610526565b820191906000526020600020905b81548152906001019060200180831161050957829003601f168201915b5050505050905090565b600061053b82610eb9565b61057a576040517f08c379a00000000000000000000000000000000000000000000000000000000081526004016105719061246e565b60405180910390fd5b6005600083815260200190815260200160002060009054906101000a900473ffffffffffffffffffffffffffffffffffffffff169050919050565b60006105c0826107f4565b90508073ffffffffffffffffffffffffffffffffffffffff168373ffffffffffffffffffffffffffffffffffffffff161415610631576040517f08c379a000000000000000000000000000000000000000000000000000000000815260040161062890612500565b60405180910390fd5b8073ffffffffffffffffffffffffffffffffffffffff16610650610f25565b73ffffffffffffffffffffffffffffffffffffffff16148061067f575061067e81610679610f25565b610cc3565b5b6106be576040517f08c379a00000000000000000000000000000000000000000000000000000000081526004016106b590612592565b60405180910390fd5b6106c88383610f2d565b505050565b60006106d96007610fe6565b905090565b6106ef6106e9610f25565b82610ff4565b61072e576040517f08c379a000000000000000000000000000000000000000000000000000000000815260040161072590612624565b60405180910390fd5b6107398383836110d2565b505050565b61075983838360405180602001604052806000815250610aee565b505050565b610766610f25565b73ffffffffffffffffffffffffffffffffffffffff166107846109e6565b73ffffffffffffffffffffffffffffffffffffffff16146107da576040517f08c379a00000000000000000000000000000000000000000000000000000000081526004016107d190612690565b60405180910390fd5b80600990805190602001906107f0929190611c4b565b5050565b6000806003600084815260200190815260200160002060009054906101000a900473ffffffffffffffffffffffffffffffffffffffff169050600073ffffffffffffffffffffffffffffffffffffffff168173ffffffffffffffffffffffffffffffffffffffff16141561089d576040517f08c379a000000000000000000000000000000000000000000000000000000000815260040161089490612722565b60405180910390fd5b80915050919050565b60008073ffffffffffffffffffffffffffffffffffffffff168273ffffffffffffffffffffffffffffffffffffffff161415610917576040517f08c379a000000000000000000000000000000000000000000000000000000000815260040161090e906127b4565b60405180910390fd5b600460008373ffffffffffffffffffffffffffffffffffffffff1673ffffffffffffffffffffffffffffffffffffffff168152602001908152602001600020549050919050565b610966610f25565b73ffffffffffffffffffffffffffffffffffffffff166109846109e6565b73ffffffffffffffffffffffffffffffffffffffff16146109da576040517f08c379a00000000000000000000000000000000000000000000000000000000081526004016109d190612690565b60405180910390fd5b6109e46000611339565b565b60008060009054906101000a900473ffffffffffffffffffffffffffffffffffffffff16905090565b606060028054610a1e906123ca565b80601f0160208091040260200160405190810160405280929190818152602001828054610a4a906123ca565b8015610a975780601f10610a6c57610100808354040283529160200191610a97565b820191906000526020600020905b815481529060010190602001808311610a7a57829003601f168201915b5050505050905090565b610ab3610aac610f25565b83836113fd565b5050565b6000610ac3600761156a565b6000610acf6007610fe6565b9050610adb3382611580565b610ae5818461159e565b80915050919050565b610aff610af9610f25565b83610ff4565b610b3e576040517f08c379a0000000000000000000000000000000000000000000000000000000008152600401610b3590612624565b60405180910390fd5b610b4a84848484611612565b50505050565b6060610b5b82610eb9565b610b9a576040517f08c379a0000000000000000000000000000000000000000000000000000000008152600401610b9190612846565b60405180910390fd5b6000600860008481526020019081526020016000208054610bba906123ca565b80601f0160208091040260200160405190810160405280929190818152602001828054610be6906123ca565b8015610c335780601f10610c0857610100808354040283529160200191610c33565b820191906000526020600020905b815481529060010190602001808311610c1657829003601f168201915b505050505090506000610c4461166e565b9050600081511415610c5a578192505050610cbe565b600082511115610c8f578082604051602001610c779291906128a2565b60405160208183030381529060405292505050610cbe565b80610c9985611700565b604051602001610caa9291906128a2565b604051602081830303815290604052925050505b919050565b6000600660008473ffffffffffffffffffffffffffffffffffffffff1673ffffffffffffffffffffffffffffffffffffffff16815260200190815260200160002060008373ffffffffffffffffffffffffffffffffffffffff1673ffffffffffffffffffffffffffffffffffffffff16815260200190815260200160002060009054906101000a900460ff16905092915050565b610d5f610f25565b73ffffffffffffffffffffffffffffffffffffffff16610d7d6109e6565b73ffffffffffffffffffffffffffffffffffffffff1614610dd3576040517f08c379a0000000000000000000000000000000000000000000000000000000008152600401610dca90612690565b60405180910390fd5b600073ffffffffffffffffffffffffffffffffffffffff168173ffffffffffffffffffffffffffffffffffffffff161415610e43576040517f08c379a0000000000000000000000000000000000000000000000000000000008152600401610e3a90612938565b60405180910390fd5b610e4c81611339565b50565b60007f01ffc9a7000000000000000000000000000000000000000000000000000000007bffffffffffffffffffffffffffffffffffffffffffffffffffffffff1916827bffffffffffffffffffffffffffffffffffffffffffffffffffffffff1916149050919050565b60008073ffffffffffffffffffffffffffffffffffffffff166003600084815260200190815260200160002060009054906101000a900473ffffffffffffffffffffffffffffffffffffffff1673ffffffffffffffffffffffffffffffffffffffff1614159050919050565b600033905090565b816005600083815260200190815260200160002060006101000a81548173ffffffffffffffffffffffffffffffffffffffff021916908373ffffffffffffffffffffffffffffffffffffffff160217905550808273ffffffffffffffffffffffffffffffffffffffff16610fa0836107f4565b73ffffffffffffffffffffffffffffffffffffffff167f8c5be1e5ebec7d5bd14f71427d1e84f3dd0314c0f7b2291e5b200ac8c7c3b92560405160405180910390a45050565b600081600001549050919050565b6000610fff82610eb9565b61103e576040517f08c379a0000000000000000000000000000000000000000000000000000000008152600401611035906129ca565b60405180910390fd5b6000611049836107f4565b90508073ffffffffffffffffffffffffffffffffffffffff168473ffffffffffffffffffffffffffffffffffffffff1614806110b857508373ffffffffffffffffffffffffffffffffffffffff166110a084610530565b73ffffffffffffffffffffffffffffffffffffffff16145b806110c957506110c88185610cc3565b5b91505092915050565b8273ffffffffffffffffffffffffffffffffffffffff166110f2826107f4565b73ffffffffffffffffffffffffffffffffffffffff1614611148576040517f08c379a000000000000000000000000000000000000000000000000000000000815260040161113f90612a5c565b60405180910390fd5b600073ffffffffffffffffffffffffffffffffffffffff168273ffffffffffffffffffffffffffffffffffffffff1614156111b8576040517f08c379a00000000000000000000000000000000000000000000000000000000081526004016111af90612aee565b60405180910390fd5b6111c3838383611861565b6111ce600082610f2d565b6001600460008573ffffffffffffffffffffffffffffffffffffffff1673ffffffffffffffffffffffffffffffffffffffff168152602001908152602001600020600082825461121e9190612b3d565b925050819055506001600460008473ffffffffffffffffffffffffffffffffffffffff1673ffffffffffffffffffffffffffffffffffffffff16815260200190815260200160002060008282546112759190612b71565b92505081905550816003600083815260200190815260200160002060006101000a81548173ffffffffffffffffffffffffffffffffffffffff021916908373ffffffffffffffffffffffffffffffffffffffff160217905550808273ffffffffffffffffffffffffffffffffffffffff168473ffffffffffffffffffffffffffffffffffffffff167fddf252ad1be2c89b69c2b068fc378daa952ba7f163c4a11628f55a4df523b3ef60405160405180910390a4611334838383611866565b505050565b60008060009054906101000a900473ffffffffffffffffffffffffffffffffffffffff169050816000806101000a81548173ffffffffffffffffffffffffffffffffffffffff021916908373ffffffffffffffffffffffffffffffffffffffff1602179055508173ffffffffffffffffffffffffffffffffffffffff168173ffffffffffffffffffffffffffffffffffffffff167f8be0079c531659141344cd1fd0a4f28419497f9722a3daafe3b4186f6b6457e060405160405180910390a35050565b8173ffffffffffffffffffffffffffffffffffffffff168373ffffffffffffffffffffffffffffffffffffffff16141561146c576040517f08c379a000000000000000000000000000000000000000000000000000000000815260040161146390612c13565b60405180910390fd5b80600660008573ffffffffffffffffffffffffffffffffffffffff1673ffffffffffffffffffffffffffffffffffffffff16815260200190815260200160002060008473ffffffffffffffffffffffffffffffffffffffff1673ffffffffffffffffffffffffffffffffffffffff16815260200190815260200160002060006101000a81548160ff0219169083151502179055508173ffffffffffffffffffffffffffffffffffffffff168373ffffffffffffffffffffffffffffffffffffffff167f17307eab39ab6107e8899845ad3d59bd9653f200f220920489ca2b5937696c318360405161155d9190611da2565b60405180910390a3505050565b6001816000016000828254019250508190555050565b61159a82826040518060200160405280600081525061186b565b5050565b6115a782610eb9565b6115e6576040517f08c379a00000000000000000000000000000000000000000000000000000000081526004016115dd90612ca5565b60405180910390fd5b8060086000848152602001908152602001600020908051906020019061160d929190611c4b565b505050565b61161d8484846110d2565b611629848484846118c6565b611668576040517f08c379a000000000000000000000000000000000000000000000000000000000815260040161165f90612d37565b60405180910390fd5b50505050565b60606009805461167d906123ca565b80601f01602080910402602001604051908101604052809291908181526020018280546116a9906123ca565b80156116f65780601f106116cb576101008083540402835291602001916116f6565b820191906000526020600020905b8154815290600101906020018083116116d957829003601f168201915b5050505050905090565b60606000821415611748576040518060400160405280600181526020017f3000000000000000000000000000000000000000000000000000000000000000815250905061185c565b600082905060005b6000821461177a57808061176390612d57565b915050600a826117739190612dcf565b9150611750565b60008167ffffffffffffffff8111156117965761179561202a565b5b6040519080825280601f01601f1916602001820160405280156117c85781602001600182028036833780820191505090505b5090505b60008514611855576001826117e19190612b3d565b9150600a856117f09190612e00565b60306117fc9190612b71565b60f81b81838151811061181257611811612e31565b5b60200101907effffffffffffffffffffffffffffffffffffffffffffffffffffffffffffff1916908160001a905350600a8561184e9190612dcf565b94506117cc565b8093505050505b919050565b505050565b505050565b6118758383611a4e565b61188260008484846118c6565b6118c1576040517f08c379a00000000000000000000000000000000000000000000000000000000081526004016118b890612d37565b60405180910390fd5b505050565b60006118e78473ffffffffffffffffffffffffffffffffffffffff16611c28565b15611a41578373ffffffffffffffffffffffffffffffffffffffff1663150b7a02611910610f25565b8786866040518563ffffffff1660e01b81526004016119329493929190612eb5565b6020604051808303816000875af192505050801561196e57506040513d601f19601f8201168201806040525081019061196b9190612f16565b60015b6119f1573d806000811461199e576040519150601f19603f3d011682016040523d82523d6000602084013e6119a3565b606091505b506000815114156119e9576040517f08c379a00000000000000000000000000000000000000000000000000000000081526004016119e090612d37565b60405180910390fd5b805181602001fd5b63150b7a0260e01b7bffffffffffffffffffffffffffffffffffffffffffffffffffffffff1916817bffffffffffffffffffffffffffffffffffffffffffffffffffffffff191614915050611a46565b600190505b949350505050565b600073ffffffffffffffffffffffffffffffffffffffff168273ffffffffffffffffffffffffffffffffffffffff161415611abe576040517f08c379a0000000000000000000000000000000000000000000000000000000008152600401611ab590612f8f565b60405180910390fd5b611ac781610eb9565b15611b07576040517f08c379a0000000000000000000000000000000000000000000000000000000008152600401611afe90612ffb565b60405180910390fd5b611b1360008383611861565b6001600460008473ffffffffffffffffffffffffffffffffffffffff1673ffffffffffffffffffffffffffffffffffffffff1681526020019081526020016000206000828254611b639190612b71565b92505081905550816003600083815260200190815260200160002060006101000a81548173ffffffffffffffffffffffffffffffffffffffff021916908373ffffffffffffffffffffffffffffffffffffffff160217905550808273ffffffffffffffffffffffffffffffffffffffff16600073ffffffffffffffffffffffffffffffffffffffff167fddf252ad1be2c89b69c2b068fc378daa952ba7f163c4a11628f55a4df523b3ef60405160405180910390a4611c2460008383611866565b5050565b6000808273ffffffffffffffffffffffffffffffffffffffff163b119050919050565b828054611c57906123ca565b90600052602060002090601f016020900481019282611c795760008555611cc0565b82601f10611c9257805160ff1916838001178555611cc0565b82800160010185558215611cc0579182015b82811115611cbf578251825591602001919060010190611ca4565b5b509050611ccd9190611cd1565b5090565b5b80821115611cea576000816000905550600101611cd2565b5090565b6000604051905090565b600080fd5b600080fd5b60007fffffffff0000000000000000000000000000000000000000000000000000000082169050919050565b611d3781611d02565b8114611d4257600080fd5b50565b600081359050611d5481611d2e565b92915050565b600060208284031215611d7057611d6f611cf8565b5b6000611d7e84828501611d45565b91505092915050565b60008115159050919050565b611d9c81611d87565b82525050565b6000602082019050611db76000830184611d93565b92915050565b600081519050919050565b600082825260208201905092915050565b60005b83811015611df7578082015181840152602081019050611ddc565b83811115611e06576000848401525b50505050565b6000601f19601f8301169050919050565b6000611e2882611dbd565b611e328185611dc8565b9350611e42818560208601611dd9565b611e4b81611e0c565b840191505092915050565b60006020820190508181036000830152611e708184611e1d565b905092915050565b6000819050919050565b611e8b81611e78565b8114611e9657600080fd5b50565b600081359050611ea881611e82565b92915050565b600060208284031215611ec457611ec3611cf8565b5b6000611ed284828501611e99565b91505092915050565b600073ffffffffffffffffffffffffffffffffffffffff82169050919050565b6000611f0682611edb565b9050919050565b611f1681611efb565b82525050565b6000602082019050611f316000830184611f0d565b92915050565b611f4081611efb565b8114611f4b57600080fd5b50565b600081359050611f5d81611f37565b92915050565b60008060408385031215611f7a57611f79611cf8565b5b6000611f8885828601611f4e565b9250506020611f9985828601611e99565b9150509250929050565b611fac81611e78565b82525050565b6000602082019050611fc76000830184611fa3565b92915050565b600080600060608486031215611fe657611fe5611cf8565b5b6000611ff486828701611f4e565b935050602061200586828701611f4e565b925050604061201686828701611e99565b9150509250925092565b600080fd5b600080fd5b7f4e487b7100000000000000000000000000000000000000000000000000000000600052604160045260246000fd5b61206282611e0c565b810181811067ffffffffffffffff821117156120815761208061202a565b5b80604052505050565b6000612094611cee565b90506120a08282612059565b919050565b600067ffffffffffffffff8211156120c0576120bf61202a565b5b6120c982611e0c565b9050602081019050919050565b82818337600083830152505050565b60006120f86120f3846120a5565b61208a565b90508281526020810184848401111561211457612113612025565b5b61211f8482856120d6565b509392505050565b600082601f83011261213c5761213b612020565b5b813561214c8482602086016120e5565b91505092915050565b60006020828403121561216b5761216a611cf8565b5b600082013567ffffffffffffffff81111561218957612188611cfd565b5b61219584828501612127565b91505092915050565b6000602082840312156121b4576121b3611cf8565b5b60006121c284828501611f4e565b91505092915050565b6121d481611d87565b81146121df57600080fd5b50565b6000813590506121f1816121cb565b92915050565b6000806040838503121561220e5761220d611cf8565b5b600061221c85828601611f4e565b925050602061222d858286016121e2565b9150509250929050565b600067ffffffffffffffff8211156122525761225161202a565b5b61225b82611e0c565b9050602081019050919050565b600061227b61227684612237565b61208a565b90508281526020810184848401111561229757612296612025565b5b6122a28482856120d6565b509392505050565b600082601f8301126122bf576122be612020565b5b81356122cf848260208601612268565b91505092915050565b600080600080608085870312156122f2576122f1611cf8565b5b600061230087828801611f4e565b945050602061231187828801611f4e565b935050604061232287828801611e99565b925050606085013567ffffffffffffffff81111561234357612342611cfd565b5b61234f878288016122aa565b91505092959194509250565b6000806040838503121561237257612371611cf8565b5b600061238085828601611f4e565b925050602061239185828601611f4e565b9150509250929050565b7f4e487b7100000000000000000000000000000000000000000000000000000000600052602260045260246000fd5b600060028204905060018216806123e257607f821691505b602082108114156123f6576123f561239b565b5b50919050565b7f4552433732313a20617070726f76656420717565727920666f72206e6f6e657860008201527f697374656e7420746f6b656e0000000000000000000000000000000000000000602082015250565b6000612458602c83611dc8565b9150612463826123fc565b604082019050919050565b600060208201905081810360008301526124878161244b565b9050919050565b7f4552433732313a20617070726f76616c20746f2063757272656e74206f776e6560008201527f7200000000000000000000000000000000000000000000000000000000000000602082015250565b60006124ea602183611dc8565b91506124f58261248e565b604082019050919050565b60006020820190508181036000830152612519816124dd565b9050919050565b7f4552433732313a20617070726f76652063616c6c6572206973206e6f74206f7760008201527f6e6572206e6f7220617070726f76656420666f7220616c6c0000000000000000602082015250565b600061257c603883611dc8565b915061258782612520565b604082019050919050565b600060208201905081810360008301526125ab8161256f565b9050919050565b7f4552433732313a207472616e736665722063616c6c6572206973206e6f74206f60008201527f776e6572206e6f7220617070726f766564000000000000000000000000000000602082015250565b600061260e603183611dc8565b9150612619826125b2565b604082019050919050565b6000602082019050818103600083015261263d81612601565b9050919050565b7f4f776e61626c653a2063616c6c6572206973206e6f7420746865206f776e6572600082015250565b600061267a602083611dc8565b915061268582612644565b602082019050919050565b600060208201905081810360008301526126a98161266d565b9050919050565b7f4552433732313a206f776e657220717565727920666f72206e6f6e657869737460008201527f656e7420746f6b656e0000000000000000000000000000000000000000000000602082015250565b600061270c602983611dc8565b9150612717826126b0565b604082019050919050565b6000602082019050818103600083015261273b816126ff565b9050919050565b7f4552433732313a2062616c616e636520717565727920666f7220746865207a6560008201527f726f206164647265737300000000000000000000000000000000000000000000602082015250565b600061279e602a83611dc8565b91506127a982612742565b604082019050919050565b600060208201905081810360008301526127cd81612791565b9050919050565b7f4552433732314d657461646174613a2055524920717565727920666f72206e6f60008201527f6e6578697374656e7420746f6b656e0000000000000000000000000000000000602082015250565b6000612830602f83611dc8565b915061283b826127d4565b604082019050919050565b6000602082019050818103600083015261285f81612823565b9050919050565b600081905092915050565b600061287c82611dbd565b6128868185612866565b9350612896818560208601611dd9565b80840191505092915050565b60006128ae8285612871565b91506128ba8284612871565b91508190509392505050565b7f4f776e61626c653a206e6577206f776e657220697320746865207a65726f206160008201527f6464726573730000000000000000000000000000000000000000000000000000602082015250565b6000612922602683611dc8565b915061292d826128c6565b604082019050919050565b6000602082019050818103600083015261295181612915565b9050919050565b7f4552433732313a206f70657261746f7220717565727920666f72206e6f6e657860008201527f697374656e7420746f6b656e0000000000000000000000000000000000000000602082015250565b60006129b4602c83611dc8565b91506129bf82612958565b604082019050919050565b600060208201905081810360008301526129e3816129a7565b9050919050565b7f4552433732313a207472616e736665722066726f6d20696e636f72726563742060008201527f6f776e6572000000000000000000000000000000000000000000000000000000602082015250565b6000612a46602583611dc8565b9150612a51826129ea565b604082019050919050565b60006020820190508181036000830152612a7581612a39565b9050919050565b7f4552433732313a207472616e7366657220746f20746865207a65726f2061646460008201527f7265737300000000000000000000000000000000000000000000000000000000602082015250565b6000612ad8602483611dc8565b9150612ae382612a7c565b604082019050919050565b60006020820190508181036000830152612b0781612acb565b9050919050565b7f4e487b7100000000000000000000000000000000000000000000000000000000600052601160045260246000fd5b6000612b4882611e78565b9150612b5383611e78565b925082821015612b6657612b65612b0e565b5b828203905092915050565b6000612b7c82611e78565b9150612b8783611e78565b9250827fffffffffffffffffffffffffffffffffffffffffffffffffffffffffffffffff03821115612bbc57612bbb612b0e565b5b828201905092915050565b7f4552433732313a20617070726f766520746f2063616c6c657200000000000000600082015250565b6000612bfd601983611dc8565b9150612c0882612bc7565b602082019050919050565b60006020820190508181036000830152612c2c81612bf0565b9050919050565b7f4552433732314d657461646174613a2055524920736574206f66206e6f6e657860008201527f697374656e7420746f6b656e0000000000000000000000000000000000000000602082015250565b6000612c8f602c83611dc8565b9150612c9a82612c33565b604082019050919050565b60006020820190508181036000830152612cbe81612c82565b9050919050565b7f4552433732313a207472616e7366657220746f206e6f6e20455243373231526560008201527f63656976657220696d706c656d656e7465720000000000000000000000000000602082015250565b6000612d21603283611dc8565b9150612d2c82612cc5565b604082019050919050565b60006020820190508181036000830152612d5081612d14565b9050919050565b6000612d6282611e78565b91507fffffffffffffffffffffffffffffffffffffffffffffffffffffffffffffffff821415612d9557612d94612b0e565b5b600182019050919050565b7f4e487b7100000000000000000000000000000000000000000000000000000000600052601260045260246000fd5b6000612dda82611e78565b9150612de583611e78565b925082612df557612df4612da0565b5b828204905092915050565b6000612e0b82611e78565b9150612e1683611e78565b925082612e2657612e25612da0565b5b828206905092915050565b7f4e487b7100000000000000000000000000000000000000000000000000000000600052603260045260246000fd5b600081519050919050565b600082825260208201905092915050565b6000612e8782612e60565b612e918185612e6b565b9350612ea1818560208601611dd9565b612eaa81611e0c565b840191505092915050565b6000608082019050612eca6000830187611f0d565b612ed76020830186611f0d565b612ee46040830185611fa3565b8181036060830152612ef68184612e7c565b905095945050505050565b600081519050612f1081611d2e565b92915050565b600060208284031215612f2c57612f2b611cf8565b5b6000612f3a84828501612f01565b91505092915050565b7f4552433732313a206d696e7420746f20746865207a65726f2061646472657373600082015250565b6000612f79602083611dc8565b9150612f8482612f43565b602082019050919050565b60006020820190508181036000830152612fa881612f6c565b9050919050565b7f4552433732313a20746f6b656e20616c7265616479206d696e74656400000000600082015250565b6000612fe5601c83611dc8565b9150612ff082612faf565b602082019050919050565b6000602082019050818103600083015261301481612fd8565b905091905056fea264697066735822122067ab3f535ddc15b520308c0d7e476adbd8c1a76c64a308bdea1bcbcbb572a4e964736f6c634300080b0033",
  "immutableReferences": {},
  "source": "// SPDX-License-Identifier: MIT\r\n// pragma solidity >=0.4.22 <0.9.0;\r\npragma solidity ^0.8.11;\r\n\r\nimport \"@openzeppelin/contracts/token/ERC721/ERC721.sol\";\r\nimport \"@openzeppelin/contracts/utils/Counters.sol\";\r\nimport \"@openzeppelin/contracts/access/Ownable.sol\";\r\n\r\ncontract ArtCollectible is Ownable, ERC721 {\r\n    using Counters for Counters.Counter;\r\n    Counters.Counter private _tokenIds;\r\n    using Strings for uint256;\r\n    // Optional mapping for token URIs\r\n    mapping(uint256 => string) private _tokenURIs;\r\n\r\n    // Base URI\r\n    string private _baseURIextended;\r\n\r\n    constructor() ERC721(\"artCollectible\", \"ARTC\") {}//takes in a name and symbol so that every NFT we create will have this name and symbol\r\n\r\n    // https://forum.openzeppelin.com/t/function-settokenuri-in-erc721-is-gone-with-pragma-0-8-0/5978/3\r\n    function setBaseURI(string memory baseURI_) external onlyOwner {\r\n        _baseURIextended = baseURI_;\r\n    }\r\n\r\n    function _setTokenURI(uint256 tokenId, string memory _tokenURI)\r\n        internal\r\n        virtual\r\n    {\r\n        require(\r\n            _exists(tokenId),\r\n            \"ERC721Metadata: URI set of nonexistent token\"\r\n        );\r\n        _tokenURIs[tokenId] = _tokenURI;\r\n    }\r\n\r\n    function _baseURI() internal view virtual override returns (string memory) {\r\n        return _baseURIextended;\r\n    }\r\n\r\n    function tokenURI(uint256 tokenId)\r\n        public\r\n        view\r\n        virtual\r\n        override\r\n        returns (string memory)\r\n    {\r\n        require(\r\n            _exists(tokenId),\r\n            \"ERC721Metadata: URI query for nonexistent token\"\r\n        );\r\n\r\n        string memory _tokenURI = _tokenURIs[tokenId];\r\n        string memory base = _baseURI();\r\n\r\n        // If there is no base URI, return the token URI.\r\n        if (bytes(base).length == 0) {\r\n            return _tokenURI;\r\n        }\r\n        // If both are set, concatenate the baseURI and tokenURI (via abi.encodePacked).\r\n        if (bytes(_tokenURI).length > 0) {\r\n            return string(abi.encodePacked(base, _tokenURI));\r\n        }\r\n        // If there is a baseURI but no tokenURI, concatenate the tokenID to the baseURI.\r\n        return string(abi.encodePacked(base, tokenId.toString()));\r\n    }\r\n\r\n    function claimItem(string memory _tokenURI) public returns (uint256) { //function to mint tokens\r\n        _tokenIds.increment();\r\n        uint256 newItemId = _tokenIds.current();\r\n        _safeMint(msg.sender, newItemId);\r\n        _setTokenURI(newItemId, _tokenURI);\r\n        return newItemId;\r\n    }\r\n\r\n    function totalSupply() public view returns (uint256) {\r\n        return _tokenIds.current();\r\n    }\r\n}",
  "sourcePath": "C:\\src\\Solidity\\nft-demo\\contracts\\ArtCollectible.sol",
  "compiler": {
    "name": "solc",
    "version": "0.8.11+commit.d7f03943.Emscripten.clang"
  },
  "schemaVersion": "3.4.4",
  "updatedAt": "2022-03-21T09:12:26.864Z",
  "networkType": "ethereum",
  "devdoc": {
    "kind": "dev",
    "methods": {
      "approve(address,uint256)": {
        "details": "See {IERC721-approve}."
      },
      "balanceOf(address)": {
        "details": "See {IERC721-balanceOf}."
      },
      "getApproved(uint256)": {
        "details": "See {IERC721-getApproved}."
      },
      "isApprovedForAll(address,address)": {
        "details": "See {IERC721-isApprovedForAll}."
      },
      "name()": {
        "details": "See {IERC721Metadata-name}."
      },
      "owner()": {
        "details": "Returns the address of the current owner."
      },
      "ownerOf(uint256)": {
        "details": "See {IERC721-ownerOf}."
      },
      "renounceOwnership()": {
        "details": "Leaves the contract without owner. It will not be possible to call `onlyOwner` functions anymore. Can only be called by the current owner. NOTE: Renouncing ownership will leave the contract without an owner, thereby removing any functionality that is only available to the owner."
      },
      "safeTransferFrom(address,address,uint256)": {
        "details": "See {IERC721-safeTransferFrom}."
      },
      "safeTransferFrom(address,address,uint256,bytes)": {
        "details": "See {IERC721-safeTransferFrom}."
      },
      "setApprovalForAll(address,bool)": {
        "details": "See {IERC721-setApprovalForAll}."
      },
      "supportsInterface(bytes4)": {
        "details": "See {IERC165-supportsInterface}."
      },
      "symbol()": {
        "details": "See {IERC721Metadata-symbol}."
      },
      "tokenURI(uint256)": {
        "details": "See {IERC721Metadata-tokenURI}."
      },
      "transferFrom(address,address,uint256)": {
        "details": "See {IERC721-transferFrom}."
      },
      "transferOwnership(address)": {
        "details": "Transfers ownership of the contract to a new account (`newOwner`). Can only be called by the current owner."
      }
    },
    "version": 1
  },
  "userdoc": {
    "kind": "user",
    "methods": {},
    "version": 1
  }
}